{
  "_format": "hh-sol-artifact-1",
  "contractName": "EdgeURContract",
  "sourceName": "contracts/EdgeURContract.sol",
  "abi": [
    {
      "anonymous": false,
      "inputs": [
        {
          "indexed": false,
          "internalType": "string",
          "name": "uri",
          "type": "string"
        }
      ],
      "name": "StoreURIEvent",
      "type": "event"
    },
    {
      "inputs": [
        {
          "internalType": "string",
          "name": "",
          "type": "string"
        }
      ],
      "name": "cidToDealId",
      "outputs": [
        {
          "internalType": "uint256",
          "name": "",
          "type": "uint256"
        }
      ],
      "stateMutability": "view",
      "type": "function"
    },
    {
      "inputs": [
        {
          "internalType": "string",
          "name": "",
          "type": "string"
        }
      ],
      "name": "cidToStatus",
      "outputs": [
        {
          "internalType": "string",
          "name": "",
          "type": "string"
        }
      ],
      "stateMutability": "view",
      "type": "function"
    },
    {
      "inputs": [
        {
          "internalType": "uint256",
          "name": "",
          "type": "uint256"
        }
      ],
      "name": "jobIdtoCid",
      "outputs": [
        {
          "internalType": "string",
          "name": "",
          "type": "string"
        }
      ],
      "stateMutability": "view",
      "type": "function"
    },
    {
      "inputs": [
        {
          "internalType": "string",
          "name": "uri",
          "type": "string"
        }
      ],
      "name": "storeURI",
      "outputs": [],
      "stateMutability": "nonpayable",
      "type": "function"
    },
    {
      "inputs": [
        {
          "internalType": "string",
          "name": "cid",
          "type": "string"
        },
        {
          "internalType": "uint256",
          "name": "dealId",
          "type": "uint256"
        },
        {
          "internalType": "string",
          "name": "status",
          "type": "string"
        }
      ],
      "name": "updateDealId",
      "outputs": [],
      "stateMutability": "nonpayable",
      "type": "function"
    },
    {
      "inputs": [
        {
          "internalType": "string",
          "name": "uri",
          "type": "string"
        },
        {
          "internalType": "uint256",
          "name": "jobId",
          "type": "uint256"
        },
        {
          "internalType": "string",
          "name": "cid",
          "type": "string"
        }
      ],
      "name": "updateJobId",
      "outputs": [],
      "stateMutability": "nonpayable",
      "type": "function"
    },
    {
      "inputs": [
        {
          "internalType": "string",
          "name": "",
          "type": "string"
        }
      ],
      "name": "uriToJobId",
      "outputs": [
        {
          "internalType": "uint256",
          "name": "",
          "type": "uint256"
        }
      ],
      "stateMutability": "view",
      "type": "function"
    }
  ],
  "bytecode": "0x608060405234801561001057600080fd5b506107c7806100206000396000f3fe608060405234801561001057600080fd5b506004361061007d5760003560e01c80632ac5b52e1161005b5780632ac5b52e146100eb5780635a4294f31461010b57806362aca0321461011e578063c40577d21461013157600080fd5b8063262bcc9e14610082578063293f794a146100975780632a4fabee146100d8575b600080fd5b610095610090366004610450565b61015c565b005b6100c26100a5366004610450565b805160208183018101805160008252928201919093012091525481565b6040516100cf919061048b565b60405180910390f35b6100956100e63660046104a0565b6101b9565b6100fe6100f9366004610450565b61025b565b6040516100cf919061057b565b6100fe610119366004610593565b610300565b61009561012c3660046104a0565b610319565b6100c261013f366004610450565b805160208183018101805160028252928201919093012091525481565b6000808260405161016d91906105d6565b9081526020016040518091039020819055507f93f1fd734fe07dac49319b65c94a15767dd0e6605f99842429dd1189d9336904816040516101ae919061057b565b60405180910390a150565b816000846040516101ca91906105d6565b90815260408051602092819003830190209290925560008481526001909152206101f482826106cd565b506040518060400160405280600681526020017f70696e6e6564000000000000000000000000000000000000000000000000000081525060038260405161023b91906105d6565b9081526020016040518091039020908161025591906106cd565b50505050565b80516020818301810180516003825292820191909301209152805461027f906105f8565b80601f01602080910402602001604051908101604052809291908181526020018280546102ab906105f8565b80156102f85780601f106102cd576101008083540402835291602001916102f8565b820191906000526020600020905b8154815290600101906020018083116102db57829003601f168201915b505050505081565b6001602052600090815260409020805461027f906105f8565b8160028460405161032a91906105d6565b9081526020016040518091039020819055508060038460405161023b91906105d6565b634e487b7160e01b600052604160045260246000fd5b601f19601f830116810181811067ffffffffffffffff821117156103895761038961034d565b6040525050565b600061039b60405190565b90506103a78282610363565b919050565b600067ffffffffffffffff8211156103c6576103c661034d565b601f19601f83011660200192915050565b82818337506000910152565b60006103f66103f1846103ac565b610390565b90508281526020810184848401111561041157610411600080fd5b61041c8482856103d7565b509392505050565b600082601f83011261043857610438600080fd5b81356104488482602086016103e3565b949350505050565b60006020828403121561046557610465600080fd5b813567ffffffffffffffff81111561047f5761047f600080fd5b61044884828501610424565b818152602081015b92915050565b8035610493565b6000806000606084860312156104b8576104b8600080fd5b833567ffffffffffffffff8111156104d2576104d2600080fd5b6104de86828701610424565b93505060206104ef86828701610499565b925050604084013567ffffffffffffffff81111561050f5761050f600080fd5b61051b86828701610424565b9150509250925092565b60005b83811015610540578181015183820152602001610528565b50506000910152565b6000610553825190565b80845260208401935061056a818560208601610525565b601f01601f19169290920192915050565b6020808252810161058c8184610549565b9392505050565b6000602082840312156105a8576105a8600080fd5b60006104488484610499565b60006105be825190565b6105cc818560208601610525565b9290920192915050565b600061058c82846105b4565b634e487b7160e01b600052602260045260246000fd5b60028104600182168061060c57607f821691505b60208210810361061e5761061e6105e2565b50919050565b60006104936106308381565b90565b61063c83610624565b81546008840282811b60001990911b908116901990911617825550505050565b6000610669818484610633565b505050565b818110156106895761068160008261065c565b60010161066e565b5050565b601f821115610669576000818152602090206020601f850104810160208510156106b45750805b6106c66020601f86010483018261066e565b5050505050565b815167ffffffffffffffff8111156106e7576106e761034d565b6106f182546105f8565b6106fc82828561068d565b6020601f83116001811461073057600084156107185750858201515b600019600886021c1981166002860217865550610789565b600085815260208120601f198616915b828110156107605788850151825560209485019460019092019101610740565b8683101561077c5784890151600019601f89166008021c191682555b6001600288020188555050505b50505050505056fea26469706673582212209baf82314c31889ba3f05644ce9c1efc5bc878c4bafc5b2816ccdeab22e136c064736f6c63430008110033",
  "linkReferences": {},
  "deployedLinkReferences": {}
}